:020000040000FA
:100000000C9462000C948A000C948A000C948A0070
:100010000C948A000C948A000C948A000C948A0038
:100020000C948A000C948A000C948A000C948A0028
:100030000C948A000C948A000C948A000C948A0018
:100040000C946E030C948A000C948A000C948A0021
:100050000C948A000C948A000C948A000C948A00F8
:100060000C948A000C948A000000000024002700F1
:100070002A0000000000250028002B0000000000DE
:1000800023002600290004040404040404040202DA
:100090000202020203030303030301020408102007
:1000A0004080010204081020010204081020000012
:1000B0000008000201000003040700000000000027
:1000C0000000550511241FBECFEFD8E0DEBFCDBF25
:1000D00011E0A0E0B1E0EAEAFBE002C005900D9279
:1000E000AA32B107D9F721E0AAE2B1E001C01D921E
:1000F000AC3BB207E1F710E0C2E6D0E004C02197C4
:10010000FE010E94CD05C136D107C9F70E94B80390
:100110000C94D3050C94000096E0899FD001112423
:10012000AB5CBE4F90967C936E935F9791E09196F7
:100130009C939197E091A201F091A3019091A1016C
:10014000992339F0309751F0811108C08091510105
:100150000994309719F05C968C91FACF0895CF925C
:10016000DF92EF92FF920F931F9396E0899FF00129
:100170001124EB5CFE4F11A2278D30A121303105F7
:1001800051F178F02230310509F451C023303105A6
:1001900009F452C01F910F91FF90EF90DF90CF9024
:1001A00008956623B9F361E070E00E948C002FB7D8
:1001B000F8948091310190913201A0913301B09176
:1001C00034012FBF80938D0190938E01A0938F01F6
:1001D000B0939001DFCF9FB7F894C0903101D090D9
:1001E0003201E0903301F09034019FBF00918D0106
:1001F00010918E0120918F0130919001C01AD10A87
:10020000E20AF30A00919F011091A00130E020E082
:100210000C151D052E053F0550F462E070E01F919E
:100220000F91FF90EF90DF90CF900C948C006111B4
:10023000B1CF63E070E0F3CF70E060E0F0CFAF9259
:10024000BF92CF92DF92EF92FF920F931F93CF93C3
:10025000DF936C017B018B01040F151FEB015E0125
:10026000AE18BF08C017D10759F06991D601ED91BA
:10027000FC910190F081E02DC6010995892B79F759
:10028000C501DF91CF911F910F91FF90EF90DF900B
:10029000CF90BF90AF900895833081F028F48130E3
:1002A00099F08230A9F008958730A9F08830C9F01C
:1002B0008430B1F4809180008F7D03C080918000F4
:1002C0008F7780938000089584B58F7784BD0895DB
:1002D00084B58F7DFBCF8091B0008F778093B00085
:1002E00008958091B0008F7DF9CFCF93DF93282FB1
:1002F00030E0F901E255FF4F8491F901E656FF4FD6
:10030000D491F901EA57FF4FC491CC23A1F0811198
:100310000E944C01EC2FF0E0EE0FFF1FE458FF4F5E
:10032000A591B491EC91ED2381E090E009F480E097
:10033000DF91CF91089580E090E0FACF862F0C9462
:1003400075011F93CF93DF93282F30E0F901E25519
:10035000FF4F8491F901E656FF4FD491F901EA5716
:10036000FF4FC491CC23A9F0162F81110E944C019C
:10037000EC2FF0E0EE0FFF1FEE58FF4FA591B49168
:100380008FB7F894EC91111108C0D095DE23DC935F
:100390008FBFDF91CF911F910895DE2BF8CF862F6D
:1003A000642F0C94A101CF93DF9390E0FC01E656FB
:1003B000FF4F24918A579F4FFC0184918823C9F0F5
:1003C00090E0880F991FFC01E859FF4FA591B49167
:1003D000FC01EE58FF4FC591D49161110DC09FB73C
:1003E000F8948C91209582238C93888128232883EC
:1003F0009FBFDF91CF910895623051F49FB7F89479
:100400003C91822F809583238C93E8812E2BEFCF14
:100410008FB7F894EC912E2B2C938FBFEACF862FB9
:10042000642F0C94D301089590E080E00895CF9359
:10043000DF93EC0160E08E810E94A10161E08E817A
:100440000E94A10160E08E810E94A1018BE891E0F1
:100450000197F1F7DF91CF910895CF92DF92EF925C
:10046000FF920F931F93CF93DF936C017C0187E082
:10047000E80EF11CD0E0C0E0062F10E0B8010C2E11
:1004800002C0759567950A94E2F76170F701819152
:100490007F010E94A1012196C430D10579F7C601E0
:1004A000DF91CF911F910F91FF90EF90DF90CF9050
:1004B0000C941702CF92DF92EF92FF920F931F934B
:1004C000CF93DF93EC01F62E642F8C810E94A10163
:1004D0008D818F3F19F060E00E94A1010F2D10E087
:1004E0008F8584FF25C06E0187E0C80ED11CF12CDA
:1004F000E12CB8010E2C02C0759567950A94E2F7BD
:100500006170F60181916F010E94A101FFEFEF1A66
:10051000FF0A88E0E816F10461F7CE01DF91CF9180
:100520001F910F91FF90EF90DF90CF900C941702E6
:10053000B80184E0759567958A95E1F7CE010E9430
:100540002D026F2DCE01DF91CF911F910F91FF9062
:10055000EF90DF90CF900C942D02CF93DF938230F9
:1005600029F49091B30198609093B3018093B701FF
:100570001092B80180E48093B90180E18093BA01C0
:1005800080E58093BB0161E08091A8010E94D301C6
:100590008091A9018F3F19F061E00E94D30161E0D1
:1005A0008091AA010E94D301C4EAD1E09E01245A9D
:1005B00031408091B30184FD0BC084E090E021962E
:1005C0002817390744F461E08E810E94D301EECFF1
:1005D00088E090E0F4CF8BE39DE00197F1F760E0D5
:1005E0008091A8010E94A10160E08091AA010E946F
:1005F000A1018091A9018F3F19F060E00E94A10143
:100600006091B30164FD45C063E084EA91E00E941B
:100610002D02CBE4D6E4CE010197F1F763E084EA42
:1006200091E00E942D022197F1F763E084EA91E0C6
:100630000E942D0283E592E00197F1F762E084EADF
:1006400091E00E942D026091B301606240E084EA73
:1006500091E00E945A0284E08093B40140E06CE093
:1006600084EA91E00E945A0240E061E084EA91E06D
:100670000E945A028BE39FE10197F1F782E0809399
:10068000B50140E066E084EA91E0DF91CF910C94FF
:100690005A02606240E084EA91E00E945A028BE4D0
:1006A00096E40197F1F76091B301606240E084EA5B
:1006B00091E00E945A0283E592E00197F1F7609180
:1006C000B301606240E084EA91E00E945A02BBCF2D
:1006D00041E00E945A0281E090E008951F920F923B
:1006E0000FB60F9211242F933F938F939F93AF9345
:1006F000BF938091310190913201A0913301B0916B
:10070000340130912E0123E0230F2D3758F5019647
:10071000A11DB11D20932E018093310190933201D0
:10072000A0933301B093340180912A0190912B0161
:10073000A0912C01B0912D010196A11DB11D8093B6
:100740002A0190932B01A0932C01B0932D01BF910E
:10075000AF919F918F913F912F910F900FBE0F906E
:100760001F90189526E8230F0296A11DB11DD2CF28
:10077000789484B5826084BD84B5816084BD85B57C
:10078000826085BD85B5816085BD80916E00816088
:1007900080936E001092810080918100826080932E
:1007A0008100809181008160809381008091800030
:1007B0008160809380008091B10084608093B1005B
:1007C0008091B00081608093B00080917A00846055
:1007D00080937A0080917A00826080937A00809181
:1007E0007A00816080937A0080917A00806880939B
:1007F0007A001092C10082E00E94AD02412C512C7F
:100800003201439422242A94322C50E0C52E50E029
:10081000D52E51E05093A1018FB7F894409131014A
:100820005091320160913301709134018FBF8091FA
:10083000910190919201A0919301B0919401481B74
:10084000590B6A0B7B0B80919D0190919E01B0E04A
:10085000A0E084179507A607B70708F012C1C0E00B
:1008600080919B01C81760F4E0919701F091980185
:10087000EC0FF11D62E080810E94D301CF5FF0CFC9
:10088000912C80919C01981608F05FC0092D10E012
:10089000E0919901F0919A01E00FF11F61E08081F0
:1008A0000E94D301E0919901F0919A01E00FF11FAC
:1008B00060E080810E94A101D301C201092C04C023
:1008C000880F991FAA1FBB1F0A94D2F75C017C01F5
:1008D000E094F094812C80919B018816F8F4C82D47
:1008E000D0E0E0919701F0919801EC0FFD1F80811D
:1008F0000E9475012496CC0FDD1FCB5CDE4F892B47
:1009000041F4888199818A299B29998388838394DA
:10091000E2CF888199818E219F21F7CFE0919901C3
:10092000F0919A01E00FF11F61E080810E94A10126
:100930008091990190919A01080F191F60E0F801C8
:1009400080810E94D30193949CCFC5E3D1E0FE0146
:10095000878D90A1892B21F4148E368E258E11A2BD
:10096000369651E0E137F50799F710E080919B0149
:10097000181708F053C000E0E12EF12CEE0CFF1C1C
:10098000C701835C9E4F7C0120919C01021708F0F7
:1009900043C0F70160817181002E02C07695679592
:1009A0000A94E2F7129F90011124200F311DE5E314
:1009B000F1E080E0458D568D2417350709F473C0AA
:1009C0008F5F36968A30B1F760FF24C0E5E3F1E02F
:1009D00090E080E0448D411118C0E0919501F091C4
:1009E0009601E20FF31F408156E0589FF001599F96
:1009F000F00D1124EB5CFE4F448F368F258F10A233
:100A0000178E61E00E94AF0005C0019636968A30CD
:100A1000910501F70F5FB8CF1F5FA8CF80E099A1C4
:100A20009111892F269691E0C137D907C1F79FB759
:100A3000F8944091310150913201609133017091ED
:100A400034019FBF409391015093920160939301B1
:100A5000709394018823A9F080915601882389F02E
:100A60008091540190915501019759F46091510181
:100A700061110AC0C114D10409F4CBCE0E94000058
:100A8000C8CE1092A101F6CF41E084EA91E00E9425
:100A90005A0280912F01909130010196909330017C
:100AA00080932F01E7CF6170ADCF1092A701109214
:100AB000A60181E291E09093A5018093A4018DE0CD
:100AC0008093A8018FEF8093A9018CE08093AA0105
:100AD0008BE08093AB018AE08093AC0189E0809346
:100AE000AD0188E08093AE011092AF011092B00189
:100AF0001092B1011092B2011092B30181E00E94F4
:100B0000AD021092370110923B0110923A011092FF
:100B10003C0187E191E09093360180933501E1E556
:100B2000F1E01082148213821582369681E0ED384E
:100B3000F807B9F783E091E09093980180939701CB
:100B400080E091E090939A018093990184E08093F2
:100B50009B0183E080939C0187E091E09093960154
:100B6000809395018AE090E090939E0180939D018F
:100B700084EF91E09093A00180939F011092A301D4
:100B80001092A20110929101109292011092930181
:100B9000109294011092A1010895EE0FFF1F05908D
:100BA000F491E02D0994F894FFCF070605040302A1
:100BB000013132333435363738392A3023000000DA
:100BC000000F02CF019E010000000068031F011406
:040BD000021302000A
:107E0000112484B714BE81FFF0D085E080938100F7
:107E100082E08093C00088E18093C10086E0809377
:107E2000C20080E18093C4008EE0C9D0259A86E02C
:107E300020E33CEF91E0309385002093840096BBD3
:107E4000B09BFECF1D9AA8958150A9F7CC24DD24C4
:107E500088248394B5E0AB2EA1E19A2EF3E0BF2EE7
:107E6000A2D0813461F49FD0082FAFD0023811F036
:107E7000013811F484E001C083E08DD089C08234E0
:107E800011F484E103C0853419F485E0A6D080C0E4
:107E9000853579F488D0E82EFF2485D0082F10E0AE
:107EA000102F00270E291F29000F111F8ED06801E7
:107EB0006FC0863521F484E090D080E0DECF843638
:107EC00009F040C070D06FD0082F6DD080E0C81688
:107ED00080E7D80618F4F601B7BEE895C0E0D1E017
:107EE00062D089930C17E1F7F0E0CF16F0E7DF06D8
:107EF00018F0F601B7BEE89568D007B600FCFDCFD4
:107F0000A601A0E0B1E02C9130E011968C91119780
:107F100090E0982F8827822B932B1296FA010C0160
:107F200087BEE89511244E5F5F4FF1E0A038BF0790
:107F300051F7F601A7BEE89507B600FCFDCF97BE46
:107F4000E89526C08437B1F42ED02DD0F82E2BD052
:107F50003CD0F601EF2C8F010F5F1F4F84911BD097
:107F6000EA94F801C1F70894C11CD11CFA94CF0C13
:107F7000D11C0EC0853739F428D08EE10CD085E9AC
:107F80000AD08FE07ACF813511F488E018D01DD067
:107F900080E101D065CF982F8091C00085FFFCCF94
:107FA0009093C60008958091C00087FFFCCF809118
:107FB000C00084FD01C0A8958091C6000895E0E648
:107FC000F0E098E1908380830895EDDF803219F02E
:107FD00088E0F5DFFFCF84E1DECF1F93182FE3DFCA
:107FE0001150E9F7F2DF1F91089580E0E8DFEE27F6
:047FF000FF270994CA
:027FFE00040479
:00000001FF
